:0A09310008089F250D9949411F0198
:10092100EF14FFF87401088002C333D8FCF580226C
:08093C0074072FF8E6F5A02274
:100800007C01E4F510F9FDF580F5A075B0FF759059
:10081000FFE5B0B4FF0DE590B4FF08AF0412093C4A
:10082000120921E5B0F4602FE4FD7E007401A805F3
:10083000088005C333CE33CED8F9FFABB0EF5B7081
:1008400006ED04F51080040DBD08DFAC10AF0412F6
:10085000093CAF04120921E590F460B5E4FD7E0087
:100860007401A805088005C333CE33CED8F9FFAB99
:1008700090EF5B7005ED04F980040DBD08E0EC69B4
:10088000608FECC39950030C80011CAF0412093C2B
:0508900012092180E9BE
:030000000208955E
:0C089500787FE4F6D8FD7581100208DCC5
:1008A100020800E493A3F8E493A34003F68001F265
:1008B10008DFF48029E493A3F85407240CC8C33358
:1008C100C4540F4420C8834004F456800146F6DF27
:1008D100E4800B0102040810204080900931E47E7D
:1008E100019360BCA3FF543F30E509541FFEE4931C
:1008F100A360010ECF54C025E060A840B8E493A3E3
:10090100FAE493A3F8E493A3C8C582C8CAC583CA0D
:10091100F0A3C8C582C8CAC583CADFE9DEE780BEC5
:01093B0000BB
:00000001FF
